:100000000BC1000026C1000024C1000022C1000075
:1000100020C100001EC100001CC100001AC1000068
:1000200018C1000016C10000F3C100006BC200003F
:1000300010C100000EC100000CC100000AC1000088
:1000400008C1000006C1000004C1000002C1000098
:1000500000C10000FEC00000FCC000006AC100003A
:10006000F8C00000F6C00000F4C00000F2C00000BC
:10007000F0C00000EEC00000ECC00000EAC00000CC
:10008000E8C00000E6C00000E4C00000E2C00000DC
:10009000E0C00000DEC0000000010000F801120016
:1000A00002000072014900220000DC011C00210056
:1000B0000084010900220100BB012100210100A4EC
:1000C0000109000300006E01040103090438013432
:1000D0000203090410012603030904DE0030300383
:1000E00045006D0075006C006100740065006400DF
:1000F0002000410072006400750069006E006F000E
:100100002000530065007200690061006C0000006F
:1001100026035400650065006E00730079006400DA
:10012000750069006E006F002000520061007700CA
:100130004800490044000000340354006500650095
:100140006E00730079006400750069006E006F0036
:100150002000520061007700480049004400200060
:100160004400650076006900630065000000040338
:10017000090409024900020100C03209040000021A
:1001800003000002092111010001221C0007058360
:1001900003400001070504034000010904010002B7
:1001A000030000030921110100012221000705813C
:1001B000034000010705020320000206C9FF0904ED
:1001C000A15C7508150026FF009540097581029510
:1001D000200976910295040976B102C006ABFF0AA8
:1001E0000002A1017508150026FF00954009018154
:1001F00002954009029102C0120100020000004075
:10020000C016860402010001000101C13601C026AA
:1002100001C13601C036000011241FBECFEFD0E26D
:10022000DEBFCDBF11E0A0E0B1E0EAE6F8E000E01B
:100230000BBF02C007900D92A030B107D9F721E0A3
:10024000A0E0B1E001C01D92A930B207E1F702D0F1
:100250000AC3D6CE22D0FFCF1DBA109268001CBCB4
:1002600010BE1FBA10927A0010926E0010926F00AA
:1002700010927000109271001092C9001092BC0090
:1002800011B814B817B81AB81DB810BA12B815B802
:1002900018B81BB81EB811BA0895F894E1E6F0E05A
:1002A00020E82083108283E084BD85BDEEE6F0E087
:1002B00080818160808391E09093800082E08093D0
:1002C00081009093B0008093B10090939000809350
:1002D000910086E880937A0020937B0010927E0044
:1002E0006DD078940895F89484B7877F84BF809107
:1002F00060008061809360001092600080E29EE464
:100300000197F1F781E08093E00080E28093D800CC
:1003100080E69AEE0197F1F79FDF0C9400FEFFCF85
:10032000F8949ADF80E69AEE0197F1F70C940000BA
:10033000FFCF8F938FB78F93809100018D5F8D37A3
:10034000D0F480930001809101018F5F80930101BF
:10035000D8F0809102018F4F80930201A8F0809124
:1003600003018F4F8093030178F0809104018F4F38
:100370008093040109C08D57809300018091010191
:100380008E5F8093010128F7809105018C5F809337
:10039000050158F0809106018F4F8093060128F0E7
:1003A000809107018F4F809307018F918FBF8F91AD
:1003B00018958091E80080FFFCCF08958091D800C7
:1003C00087FF02C085FF23C081E88093D70080EAC1
:1003D0008093D80086E189BD09B400FEFDCF80E995
:1003E0008093D8001092E00010920F0110920E013D
:1003F00010920D0110920C0110920B0110920A0143
:10040000109209011092E1008CE08093E2000895BF
:100410001F920F920FB60F9211242F938F939F93D9
:100420002091E1001092E10023FF0FC01092E9003B
:1004300081E08093EB001092EC0082E38093ED006A
:1004400088E08093F00010920F0122FF2FC080916E
:100450000F01882359F180910D01882379F0815093
:1004600080930D0181110AC081E08093E9008091A1
:10047000E80085FD44C08AE38093E80080910B0189
:1004800090910C01882331F0815090E090930C0101
:1004900080930B018091090190910A01882331F02A
:1004A000815090E090930A018093090120FF0CC0D5
:1004B00080E18093E20010920F0181E080930E01B1
:1004C00080EA8093D80019BC80910E01882379F0CE
:1004D00024FF0DC086E189BD09B400FEFDCF80E98F
:1004E0008093D8008DE08093E20010920E019F91DE
:1004F0008F912F910F900FBE0F901F901895109213
:10050000F100B5CF1F920F920FB60F9211240BB6C8
:100510000F92EF92FF920F931F932F933F934F935E
:100520005F936F937F938F939F93AF93BF93CF937B
:10053000DF93EF93FF931092E9008091E80083FF2F
:1005400021C0E090F100F090F100C091F100D09155
:10055000F1000091F1001091F1002091F100309133
:10056000F10082EF8093E80086E0F8125CC08AE038
:10057000E8E9F0E045915591C417D50739F0359673
:100580008150C1F781E28093EB002BC045915591DA
:100590000417150711F03396F3CF459155918491C7
:1005A0002F3F310519F010F02FEF30E0821708F4DB
:1005B000282F3EEF8091E800982F9570D9F382FDA7
:1005C00010C0822F213408F080E4982F911124C0AC
:1005D000922F981B892F3093E80091111BC0203473
:1005E000C8F4FF91EF91DF91CF91BF91AF919F91AF
:1005F0008F917F916F915F914F913F912F911F91BB
:100600000F91FF90EF900F900BBE0F900FBE0F90C9
:100610001F901895282FCECFFA0145914093F100F5
:10062000AF019150D3CF85E0F81208C08EEF8093D0
:10063000E800BFDEC068C093E300D3CF99E0F912B1
:1006400022C0E11067C0C0930F0110920D018EEF20
:100650008093E80081E0EAE0F2E08093E900959180
:100660009093EB00992331F095919093EC00959144
:100670009093ED008F5F853081F78EE18093EA00E3
:100680001092EA00AECF88E0F8120CC090E8E912B0
:1006900041C08FDE80910F018093F1008EEF809337
:1006A000E8009FCFF11012C084DE22E8E21209C0F8
:1006B0000093E900F090EB00F5FAFF24F0F81092B7
:1006C000E900F092F1001092F100E8CF8F2D8D7FBC
:1006D000813001F582E0E8121DC0209709F09BC02F
:1006E000402F4F778FEF840F853008F094C08EEF46
:1006F0008093E8004093E90093E0F91609F442CFB3
:1007000089E18093EB0081E090E001C0880F4A9579
:10071000EAF7B4CF0115110509F081C021EAE21210
:1007200023C081E0F8122ECF80E43EEF01C0892F74
:100730009091E800292F2570D9F392FD52CF982F80
:10074000813408F090E4292F21110AC0282F291B99
:10075000922F3093E8002111EACF803440F741CF47
:100760001092F1002150F0CF81E2E81249C099E0E7
:10077000F91208CF8091E80082FFFCCF8BEF8093C5
:10078000E80017DE8BCF1092F10091505EC089E037
:10079000F81236C091E2E912F5CEC115D34009F046
:1007A000F1CE2430310509F0EDCE8091E80082FFD2
:1007B000FCCF3091F1002091F1009091F1008091F7
:1007C000F1004BEF4093E8004EEF4093E800393AD8
:1007D00051F4253409F0D6CE923C09F0D3CE8B36B5
:1007E00009F0D0CE80DD3B3809F0CCCE253C09F0B5
:1007F000C9CE9D3109F0C6CE803709F0C3CE90DD59
:1008000099ECF912BFCE20E4E212BCCE8EEF8093B9
:10081000E800CFDDF4CF0115110509F4B3CE0130A6
:10082000110571F781E0F812B2CF91EA3EEFE912BB
:10083000A9CE8091E800982F9570D9F382FDD1CE92
:10084000822F213408F080E4982F91119CCF922FB1
:10085000981B892F3093E800911103C0203408F4CD
:0A086000C0CE282FE6CFF894FFCF9A
:00000001FF
